:100000000C9434000C943E000C943E000C943E0082
:100010000C943E000C943E000C943E000C943E0068
:100020000C943E000C943E000C943E000C943E0058
:100030000C943E000C943E000C943E000C943E0048
:100040000C943E000C943E000C943E000C943E0038
:100050000C943E000C943E000C943E000C943E0028
:100060000C943E000C943E0011241FBECFEFD8E04C
:10007000DEBFCDBF0E9440000C940B030C94000027
:10008000CF93DF93CDB7DEB76C970FB6F894DEBF92
:100090000FBECDBF84E290E02BE2FC0120838CE711
:1000A00090E02CE730E0F90120812064FC012083FE
:1000B0008AE790E02AE730E0F90120812768FC0117
:1000C00020838AE290E02CE1FC0120838BE290E027
:1000D0002BE230E0F90120812460FC0120838BE2D7
:1000E00090E02BE230E0F9012081277FFC012083A2
:1000F0008BE290E02BE230E0F90120812F7EFC01C1
:10010000208380E090E0AAEFB3E489839A83AB83F5
:10011000BC8320E030E04AE753E469817A818B8137
:100120009C810E947602DC01CB018D839E83AF838C
:10013000B88720E030E040E85FE36D817E818F8109
:1001400098850E94F00188232CF481E090E09A8742
:1001500089873FC020E03FEF4FE757E46D817E8104
:100160008F8198850E94710218164CF520E030E0CE
:1001700040E251E469817A818B819C810E94760200
:10018000DC01CB01BC01CD010E94F501DC01CB01FA
:100190009A8789870FC089E190E09C878B878B8540
:1001A0009C850197F1F79C878B8789859A850197B4
:1001B0009A87898789859A85892B69F714C06D810B
:1001C0007E818F8198850E94F501DC01CB019A87A1
:1001D000898789859A859E878D878D859E850197DC
:1001E000F1F79E878D878CE790E0FC0110828CE709
:1001F00090E02CE730E0F90120812064FC012083AD
:100200008AE790E02AE730E0F90120812768FC01C5
:1002100020838AE790E02AE730E0F901208120641A
:10022000FC01208300008AE790E0FC018081882F98
:1002300090E080749927892BB1F788E790E0FC0162
:10024000808191818838910550F085E290E025E227
:1002500030E0F90120812860FC01208309C085E29B
:1002600090E025E230E0F9012081277FFC01208326
:100270008CE790E022E0FC0120838CE790E02CE703
:1002800030E0F90120812064FC0120838AE790E0BE
:100290002AE730E0F90120812768FC0120838AE702
:1002A00090E02AE730E0F90120812064FC012083FE
:1002B00000008AE790E0FC018081882F90E0807444
:1002C0009927892BB1F788E790E0FC018081918123
:1002D0000A9750F485E290E025E230E0F9012081B0
:1002E0002062FC01208309C085E290E025E230E035
:1002F000F90120812F7DFC01208380E090E0A8E4BB
:10030000B2E48F87988BA98BBA8B20E030E04AE764
:1003100053E46F85788989899A890E947602DC0185
:10032000CB018B8B9C8BAD8BBE8B20E030E040E80B
:100330005FE36B897C898D899E890E94F001882307
:100340002CF481E090E0988F8F8B3FC020E03FEF4E
:100350004FE757E46B897C898D899E890E947102E1
:1003600018164CF520E030E040E251E46F857889C2
:1003700089899A890E947602DC01CB01BC01CD01FA
:100380000E94F501DC01CB01988F8F8B0FC089E1B2
:1003900090E09A8F898F898D9A8D0197F1F79A8FC6
:1003A000898F8F89988D0197988F8F8B8F89988DE2
:1003B000892B69F714C06B897C898D899E890E947D
:1003C000F501DC01CB01988F8F8B8F89988D9C8FE5
:1003D0008B8F8B8D9C8D0197F1F79C8F8B8F03CF2B
:1003E0000E94240208F481E008950E94500288F0DF
:1003F0009F5798F0B92F9927B751B0F0E1F0660FE9
:10040000771F881F991F1AF0BA95C9F714C0B13029
:1004100091F00E946A02B1E008950C946A02672F7D
:10042000782F8827B85F39F0B93FCCF38695779558
:100430006795B395D9F73EF4909580957095619541
:100440007F4F8F4F9F4F0895990F0008550FAA0BAC
:10045000E0E8FEEF16161706E807F907C0F01216D7
:100460001306E407F50798F0621B730B840B950BDA
:1004700039F40A2661F0232B242B252B21F408952F
:100480000A2609F4A140A6958FEF811D811D0895CC
:1004900057FD9058440F551F59F05F3F71F0479535
:1004A000880F97FB991F61F09F3F79F0879508951A
:1004B000121613061406551FF2CF4695F1DF08C039
:1004C000161617061806991FF1CF86957105610556
:1004D00008940895E894BB2766277727CB0197F9FE
:1004E00008950E94240208F48FEF08950E94890263
:1004F0000C94FA020E94EC0238F00E94F30220F001
:10050000952311F00C94E3020C94E90211240C944D
:100510006B020E94480270F3959FC1F3950F50E063
:10052000551F629FF001729FBB27F00DB11D639FA5
:10053000AA27F00DB11DAA1F649F6627B00DA11D4B
:10054000661F829F2227B00DA11D621F739FB00DF1
:10055000A11D621F839FA00D611D221F749F332761
:10056000A00D611D231F849F600D211D822F762FFA
:100570006A2F11249F5750409AF0F1F088234AF0D7
:10058000EE0FFF1FBB1F661F771F881F9150504043
:10059000A9F79E3F510580F00C94E3020C946B0286
:1005A0005F3FE4F3983ED4F3869577956795B795CA
:1005B000F795E7959F5FC1F7FE2B880F911D9695E4
:1005C000879597F9089597F99F6780E870E060E054
:1005D00008959FEF80EC089500240A9416161706DC
:1005E00018060906089500240A9412161306140624
:1005F00005060895092E0394000C11F4882352F087
:10060000BB0F40F4BF2B11F460FF04C06F5F7F4F3E
:0A0610008F4F9F4F0895F894FFCF1D
:00000001FF
